{
  "_format": "hh-sol-artifact-1",
  "contractName": "DacadePunks",
  "sourceName": "contracts/DacadePunks.sol",
  "abi": [
    {
      "inputs": [
        {
          "internalType": "uint256",
          "name": "_maxSupply",
          "type": "uint256"
        },
        {
          "internalType": "uint256",
          "name": "_cost",
          "type": "uint256"
        },
        {
          "internalType": "uint256",
          "name": "_maxMintAmountPerTx",
          "type": "uint256"
        }
      ],
      "stateMutability": "nonpayable",
      "type": "constructor"
    },
    {
      "inputs": [],
      "name": "ApprovalCallerNotOwnerNorApproved",
      "type": "error"
    },
    {
      "inputs": [],
      "name": "ApprovalQueryForNonexistentToken",
      "type": "error"
    },
    {
      "inputs": [],
      "name": "BalanceQueryForZeroAddress",
      "type": "error"
    },
    {
      "inputs": [],
      "name": "DacadePunks__ContractIsPaused",
      "type": "error"
    },
    {
      "inputs": [],
      "name": "DacadePunks__InsufficientFunds",
      "type": "error"
    },
    {
      "inputs": [],
      "name": "DacadePunks__InvalidMintAmount",
      "type": "error"
    },
    {
      "inputs": [],
      "name": "DacadePunks__MaxMintAmountExceeded",
      "type": "error"
    },
    {
      "inputs": [],
      "name": "DacadePunks__NftSupplyLimitExceeded",
      "type": "error"
    },
    {
      "inputs": [],
      "name": "DacadePunks__QueryForNonExistentToken",
      "type": "error"
    },
    {
      "inputs": [],
      "name": "InvalidQueryRange",
      "type": "error"
    },
    {
      "inputs": [],
      "name": "MintERC2309QuantityExceedsLimit",
      "type": "error"
    },
    {
      "inputs": [],
      "name": "MintToZeroAddress",
      "type": "error"
    },
    {
      "inputs": [],
      "name": "MintZeroQuantity",
      "type": "error"
    },
    {
      "inputs": [],
      "name": "OwnerQueryForNonexistentToken",
      "type": "error"
    },
    {
      "inputs": [],
      "name": "OwnershipNotInitializedForExtraData",
      "type": "error"
    },
    {
      "inputs": [],
      "name": "TransferCallerNotOwnerNorApproved",
      "type": "error"
    },
    {
      "inputs": [],
      "name": "TransferFromIncorrectOwner",
      "type": "error"
    },
    {
      "inputs": [],
      "name": "TransferToNonERC721ReceiverImplementer",
      "type": "error"
    },
    {
      "inputs": [],
      "name": "TransferToZeroAddress",
      "type": "error"
    },
    {
      "inputs": [],
      "name": "URIQueryForNonexistentToken",
      "type": "error"
    },
    {
      "anonymous": false,
      "inputs": [
        {
          "indexed": true,
          "internalType": "address",
          "name": "owner",
          "type": "address"
        },
        {
          "indexed": true,
          "internalType": "address",
          "name": "approved",
          "type": "address"
        },
        {
          "indexed": true,
          "internalType": "uint256",
          "name": "tokenId",
          "type": "uint256"
        }
      ],
      "name": "Approval",
      "type": "event"
    },
    {
      "anonymous": false,
      "inputs": [
        {
          "indexed": true,
          "internalType": "address",
          "name": "owner",
          "type": "address"
        },
        {
          "indexed": true,
          "internalType": "address",
          "name": "operator",
          "type": "address"
        },
        {
          "indexed": false,
          "internalType": "bool",
          "name": "approved",
          "type": "bool"
        }
      ],
      "name": "ApprovalForAll",
      "type": "event"
    },
    {
      "anonymous": false,
      "inputs": [
        {
          "indexed": true,
          "internalType": "uint256",
          "name": "fromTokenId",
          "type": "uint256"
        },
        {
          "indexed": false,
          "internalType": "uint256",
          "name": "toTokenId",
          "type": "uint256"
        },
        {
          "indexed": true,
          "internalType": "address",
          "name": "from",
          "type": "address"
        },
        {
          "indexed": true,
          "internalType": "address",
          "name": "to",
          "type": "address"
        }
      ],
      "name": "ConsecutiveTransfer",
      "type": "event"
    },
    {
      "anonymous": false,
      "inputs": [
        {
          "indexed": true,
          "internalType": "address",
          "name": "previousOwner",
          "type": "address"
        },
        {
          "indexed": true,
          "internalType": "address",
          "name": "newOwner",
          "type": "address"
        }
      ],
      "name": "OwnershipTransferred",
      "type": "event"
    },
    {
      "anonymous": false,
      "inputs": [
        {
          "indexed": true,
          "internalType": "address",
          "name": "from",
          "type": "address"
        },
        {
          "indexed": true,
          "internalType": "address",
          "name": "to",
          "type": "address"
        },
        {
          "indexed": true,
          "internalType": "uint256",
          "name": "tokenId",
          "type": "uint256"
        }
      ],
      "name": "Transfer",
      "type": "event"
    },
    {
      "inputs": [
        {
          "internalType": "address",
          "name": "to",
          "type": "address"
        },
        {
          "internalType": "uint256",
          "name": "tokenId",
          "type": "uint256"
        }
      ],
      "name": "approve",
      "outputs": [],
      "stateMutability": "payable",
      "type": "function"
    },
    {
      "inputs": [
        {
          "internalType": "address",
          "name": "owner",
          "type": "address"
        }
      ],
      "name": "balanceOf",
      "outputs": [
        {
          "internalType": "uint256",
          "name": "",
          "type": "uint256"
        }
      ],
      "stateMutability": "view",
      "type": "function"
    },
    {
      "inputs": [],
      "name": "baseExtension",
      "outputs": [
        {
          "internalType": "string",
          "name": "",
          "type": "string"
        }
      ],
      "stateMutability": "view",
      "type": "function"
    },
    {
      "inputs": [],
      "name": "baseURI",
      "outputs": [
        {
          "internalType": "string",
          "name": "",
          "type": "string"
        }
      ],
      "stateMutability": "view",
      "type": "function"
    },
    {
      "inputs": [],
      "name": "cost",
      "outputs": [
        {
          "internalType": "uint256",
          "name": "",
          "type": "uint256"
        }
      ],
      "stateMutability": "view",
      "type": "function"
    },
    {
      "inputs": [
        {
          "internalType": "uint256",
          "name": "tokenId",
          "type": "uint256"
        }
      ],
      "name": "explicitOwnershipOf",
      "outputs": [
        {
          "components": [
            {
              "internalType": "address",
              "name": "addr",
              "type": "address"
            },
            {
              "internalType": "uint64",
              "name": "startTimestamp",
              "type": "uint64"
            },
            {
              "internalType": "bool",
              "name": "burned",
              "type": "bool"
            },
            {
              "internalType": "uint24",
              "name": "extraData",
              "type": "uint24"
            }
          ],
          "internalType": "struct IERC721A.TokenOwnership",
          "name": "",
          "type": "tuple"
        }
      ],
      "stateMutability": "view",
      "type": "function"
    },
    {
      "inputs": [
        {
          "internalType": "uint256[]",
          "name": "tokenIds",
          "type": "uint256[]"
        }
      ],
      "name": "explicitOwnershipsOf",
      "outputs": [
        {
          "components": [
            {
              "internalType": "address",
              "name": "addr",
              "type": "address"
            },
            {
              "internalType": "uint64",
              "name": "startTimestamp",
              "type": "uint64"
            },
            {
              "internalType": "bool",
              "name": "burned",
              "type": "bool"
            },
            {
              "internalType": "uint24",
              "name": "extraData",
              "type": "uint24"
            }
          ],
          "internalType": "struct IERC721A.TokenOwnership[]",
          "name": "",
          "type": "tuple[]"
        }
      ],
      "stateMutability": "view",
      "type": "function"
    },
    {
      "inputs": [
        {
          "internalType": "uint256",
          "name": "tokenId",
          "type": "uint256"
        }
      ],
      "name": "getApproved",
      "outputs": [
        {
          "internalType": "address",
          "name": "",
          "type": "address"
        }
      ],
      "stateMutability": "view",
      "type": "function"
    },
    {
      "inputs": [
        {
          "internalType": "address",
          "name": "owner",
          "type": "address"
        },
        {
          "internalType": "address",
          "name": "operator",
          "type": "address"
        }
      ],
      "name": "isApprovedForAll",
      "outputs": [
        {
          "internalType": "bool",
          "name": "",
          "type": "bool"
        }
      ],
      "stateMutability": "view",
      "type": "function"
    },
    {
      "inputs": [],
      "name": "maxMintAmountPerTx",
      "outputs": [
        {
          "internalType": "uint256",
          "name": "",
          "type": "uint256"
        }
      ],
      "stateMutability": "view",
      "type": "function"
    },
    {
      "inputs": [],
      "name": "maxSupply",
      "outputs": [
        {
          "internalType": "uint256",
          "name": "",
          "type": "uint256"
        }
      ],
      "stateMutability": "view",
      "type": "function"
    },
    {
      "inputs": [
        {
          "internalType": "uint256",
          "name": "_mintAmount",
          "type": "uint256"
        }
      ],
      "name": "mint",
      "outputs": [],
      "stateMutability": "payable",
      "type": "function"
    },
    {
      "inputs": [],
      "name": "name",
      "outputs": [
        {
          "internalType": "string",
          "name": "",
          "type": "string"
        }
      ],
      "stateMutability": "view",
      "type": "function"
    },
    {
      "inputs": [],
      "name": "owner",
      "outputs": [
        {
          "internalType": "address",
          "name": "",
          "type": "address"
        }
      ],
      "stateMutability": "view",
      "type": "function"
    },
    {
      "inputs": [
        {
          "internalType": "uint256",
          "name": "tokenId",
          "type": "uint256"
        }
      ],
      "name": "ownerOf",
      "outputs": [
        {
          "internalType": "address",
          "name": "",
          "type": "address"
        }
      ],
      "stateMutability": "view",
      "type": "function"
    },
    {
      "inputs": [
        {
          "internalType": "uint256",
          "name": "_state",
          "type": "uint256"
        }
      ],
      "name": "pause",
      "outputs": [],
      "stateMutability": "payable",
      "type": "function"
    },
    {
      "inputs": [],
      "name": "paused",
      "outputs": [
        {
          "internalType": "uint256",
          "name": "",
          "type": "uint256"
        }
      ],
      "stateMutability": "view",
      "type": "function"
    },
    {
      "inputs": [],
      "name": "renounceOwnership",
      "outputs": [],
      "stateMutability": "nonpayable",
      "type": "function"
    },
    {
      "inputs": [
        {
          "internalType": "address",
          "name": "from",
          "type": "address"
        },
        {
          "internalType": "address",
          "name": "to",
          "type": "address"
        },
        {
          "internalType": "uint256",
          "name": "tokenId",
          "type": "uint256"
        }
      ],
      "name": "safeTransferFrom",
      "outputs": [],
      "stateMutability": "payable",
      "type": "function"
    },
    {
      "inputs": [
        {
          "internalType": "address",
          "name": "from",
          "type": "address"
        },
        {
          "internalType": "address",
          "name": "to",
          "type": "address"
        },
        {
          "internalType": "uint256",
          "name": "tokenId",
          "type": "uint256"
        },
        {
          "internalType": "bytes",
          "name": "_data",
          "type": "bytes"
        }
      ],
      "name": "safeTransferFrom",
      "outputs": [],
      "stateMutability": "payable",
      "type": "function"
    },
    {
      "inputs": [
        {
          "internalType": "address",
          "name": "operator",
          "type": "address"
        },
        {
          "internalType": "bool",
          "name": "approved",
          "type": "bool"
        }
      ],
      "name": "setApprovalForAll",
      "outputs": [],
      "stateMutability": "nonpayable",
      "type": "function"
    },
    {
      "inputs": [
        {
          "internalType": "string",
          "name": "_newBaseURI",
          "type": "string"
        }
      ],
      "name": "setBaseURI",
      "outputs": [],
      "stateMutability": "payable",
      "type": "function"
    },
    {
      "inputs": [
        {
          "internalType": "uint256",
          "name": "_newCost",
          "type": "uint256"
        }
      ],
      "name": "setCost",
      "outputs": [],
      "stateMutability": "payable",
      "type": "function"
    },
    {
      "inputs": [
        {
          "internalType": "uint256",
          "name": "_newmaxMintAmount",
          "type": "uint256"
        }
      ],
      "name": "setMaxMintAmountPerTx",
      "outputs": [],
      "stateMutability": "payable",
      "type": "function"
    },
    {
      "inputs": [
        {
          "internalType": "bytes4",
          "name": "interfaceId",
          "type": "bytes4"
        }
      ],
      "name": "supportsInterface",
      "outputs": [
        {
          "internalType": "bool",
          "name": "",
          "type": "bool"
        }
      ],
      "stateMutability": "view",
      "type": "function"
    },
    {
      "inputs": [],
      "name": "symbol",
      "outputs": [
        {
          "internalType": "string",
          "name": "",
          "type": "string"
        }
      ],
      "stateMutability": "view",
      "type": "function"
    },
    {
      "inputs": [
        {
          "internalType": "uint256",
          "name": "tokenId",
          "type": "uint256"
        }
      ],
      "name": "tokenURI",
      "outputs": [
        {
          "internalType": "string",
          "name": "",
          "type": "string"
        }
      ],
      "stateMutability": "view",
      "type": "function"
    },
    {
      "inputs": [
        {
          "internalType": "address",
          "name": "owner",
          "type": "address"
        }
      ],
      "name": "tokensOfOwner",
      "outputs": [
        {
          "internalType": "uint256[]",
          "name": "",
          "type": "uint256[]"
        }
      ],
      "stateMutability": "view",
      "type": "function"
    },
    {
      "inputs": [
        {
          "internalType": "address",
          "name": "owner",
          "type": "address"
        },
        {
          "internalType": "uint256",
          "name": "start",
          "type": "uint256"
        },
        {
          "internalType": "uint256",
          "name": "stop",
          "type": "uint256"
        }
      ],
      "name": "tokensOfOwnerIn",
      "outputs": [
        {
          "internalType": "uint256[]",
          "name": "",
          "type": "uint256[]"
        }
      ],
      "stateMutability": "view",
      "type": "function"
    },
    {
      "inputs": [],
      "name": "totalSupply",
      "outputs": [
        {
          "internalType": "uint256",
          "name": "",
          "type": "uint256"
        }
      ],
      "stateMutability": "view",
      "type": "function"
    },
    {
      "inputs": [
        {
          "internalType": "address",
          "name": "from",
          "type": "address"
        },
        {
          "internalType": "address",
          "name": "to",
          "type": "address"
        },
        {
          "internalType": "uint256",
          "name": "tokenId",
          "type": "uint256"
        }
      ],
      "name": "transferFrom",
      "outputs": [],
      "stateMutability": "payable",
      "type": "function"
    },
    {
      "inputs": [
        {
          "internalType": "address",
          "name": "newOwner",
          "type": "address"
        }
      ],
      "name": "transferOwnership",
      "outputs": [],
      "stateMutability": "nonpayable",
      "type": "function"
    },
    {
      "inputs": [],
      "name": "withdraw",
      "outputs": [],
      "stateMutability": "payable",
      "type": "function"
    }
  ],
  "bytecode": "0x60a06040526001600c553480156200001657600080fd5b50604051620039943803806200399483398181016040528101906200003c9190620002cb565b6040518060400160405280601881526020017f4461636164652050756e6b7320436f6c6c65637469626c6500000000000000008152506040518060400160405280600381526020017f44504300000000000000000000000000000000000000000000000000000000008152508160029080519060200190620000c092919062000204565b508060039080519060200190620000d992919062000204565b50620000ea6200013160201b60201c565b600081905550505062000112620001066200013660201b60201c565b6200013e60201b60201c565b81600a8190555080600b819055508260808181525050505050620003b5565b600090565b600033905090565b6000600860009054906101000a900473ffffffffffffffffffffffffffffffffffffffff16905081600860006101000a81548173ffffffffffffffffffffffffffffffffffffffff021916908373ffffffffffffffffffffffffffffffffffffffff1602179055508173ffffffffffffffffffffffffffffffffffffffff168173ffffffffffffffffffffffffffffffffffffffff167f8be0079c531659141344cd1fd0a4f28419497f9722a3daafe3b4186f6b6457e060405160405180910390a35050565b828054620002129062000331565b90600052602060002090601f01602090048101928262000236576000855562000282565b82601f106200025157805160ff191683800117855562000282565b8280016001018555821562000282579182015b828111156200028157825182559160200191906001019062000264565b5b50905062000291919062000295565b5090565b5b80821115620002b057600081600090555060010162000296565b5090565b600081519050620002c5816200039b565b92915050565b600080600060608486031215620002e757620002e662000396565b5b6000620002f786828701620002b4565b93505060206200030a86828701620002b4565b92505060406200031d86828701620002b4565b9150509250925092565b6000819050919050565b600060028204905060018216806200034a57607f821691505b6020821081141562000361576200036062000367565b5b50919050565b7f4e487b7100000000000000000000000000000000000000000000000000000000600052602260045260246000fd5b600080fd5b620003a68162000327565b8114620003b257600080fd5b50565b6080516135bc620003d8600039600081816115a1015261199e01526135bc6000f3fe6080604052600436106101ee5760003560e01c806370a082311161010d578063a22cb465116100a0578063c66828621161006f578063c668286214610679578063c87b56dd146106a4578063d5abeb01146106e1578063e985e9c51461070c578063f2fde38b14610749576101ee565b8063a22cb465146105db578063b071401b14610604578063b88d4fde14610620578063c23dc68f1461063c576101ee565b806394354fd0116100dc57806394354fd01461052c57806395d89b411461055757806399a2557a14610582578063a0712d68146105bf576101ee565b806370a0823114610470578063715018a6146104ad5780638462151c146104c45780638da5cb5b14610501576101ee565b80633ccfd60b116101855780635bbb2177116101545780635bbb2177146103a05780635c975abb146103dd5780636352211e146104085780636c0360eb14610445576101ee565b80633ccfd60b1461034257806342842e0e1461034c57806344a0d68a1461036857806355f804b314610384576101ee565b8063136439dd116101c1578063136439dd146102b457806313faede6146102d057806318160ddd146102fb57806323b872dd14610326576101ee565b806301ffc9a7146101f357806306fdde0314610230578063081812fc1461025b578063095ea7b314610298575b600080fd5b3480156101ff57600080fd5b5061021a60048036038101906102159190612ad4565b610772565b6040516102279190612faf565b60405180910390f35b34801561023c57600080fd5b50610245610804565b6040516102529190612fca565b60405180910390f35b34801561026757600080fd5b50610282600480360381019061027d9190612b77565b610896565b60405161028f9190612f04565b60405180910390f35b6102b260048036038101906102ad91906129f4565b610915565b005b6102ce60048036038101906102c99190612b77565b610a59565b005b3480156102dc57600080fd5b506102e5610a6b565b6040516102f29190613047565b60405180910390f35b34801561030757600080fd5b50610310610a71565b60405161031d9190613047565b60405180910390f35b610340600480360381019061033b91906128de565b610a88565b005b61034a610dad565b005b610366600480360381019061036191906128de565b610e35565b005b610382600480360381019061037d9190612b77565b610e55565b005b61039e60048036038101906103999190612b2e565b610e67565b005b3480156103ac57600080fd5b506103c760048036038101906103c29190612a87565b610e89565b6040516103d49190612f6b565b60405180910390f35b3480156103e957600080fd5b506103f2610f4c565b6040516103ff9190613047565b60405180910390f35b34801561041457600080fd5b5061042f600480360381019061042a9190612b77565b610f52565b60405161043c9190612f04565b60405180910390f35b34801561045157600080fd5b5061045a610f64565b6040516104679190612fca565b60405180910390f35b34801561047c57600080fd5b5061049760048036038101906104929190612871565b610ff2565b6040516104a49190613047565b60405180910390f35b3480156104b957600080fd5b506104c26110ab565b005b3480156104d057600080fd5b506104eb60048036038101906104e69190612871565b6110bf565b6040516104f89190612f8d565b60405180910390f35b34801561050d57600080fd5b50610516611209565b6040516105239190612f04565b60405180910390f35b34801561053857600080fd5b50610541611233565b60405161054e9190613047565b60405180910390f35b34801561056357600080fd5b5061056c611239565b6040516105799190612fca565b60405180910390f35b34801561058e57600080fd5b506105a960048036038101906105a49190612a34565b6112cb565b6040516105b69190612f8d565b60405180910390f35b6105d960048036038101906105d49190612b77565b6114df565b005b3480156105e757600080fd5b5061060260048036038101906105fd91906129b4565b611694565b005b61061e60048036038101906106199190612b77565b61179f565b005b61063a60048036038101906106359190612931565b6117b1565b005b34801561064857600080fd5b50610663600480360381019061065e9190612b77565b611824565b604051610670919061302c565b60405180910390f35b34801561068557600080fd5b5061068e61188e565b60405161069b9190612fca565b60405180910390f35b3480156106b057600080fd5b506106cb60048036038101906106c69190612b77565b6118c7565b6040516106d89190612fca565b60405180910390f35b3480156106ed57600080fd5b506106f661199c565b6040516107039190613047565b60405180910390f35b34801561071857600080fd5b50610733600480360381019061072e919061289e565b6119c0565b6040516107409190612faf565b60405180910390f35b34801561075557600080fd5b50610770600480360381019061076b9190612871565b611a54565b005b60006301ffc9a760e01b827bffffffffffffffffffffffffffffffffffffffffffffffffffffffff191614806107cd57506380ac58cd60e01b827bffffffffffffffffffffffffffffffffffffffffffffffffffffffff1916145b806107fd5750635b5e139f60e01b827bffffffffffffffffffffffffffffffffffffffffffffffffffffffff1916145b9050919050565b60606002805461081390613332565b80601f016020809104026020016040519081016040528092919081815260200182805461083f90613332565b801561088c5780601f106108615761010080835404028352916020019161088c565b820191906000526020600020905b81548152906001019060200180831161086f57829003601f168201915b5050505050905090565b60006108a182611ad8565b6108d7576040517fcf4700e400000000000000000000000000000000000000000000000000000000815260040160405180910390fd5b6006600083815260200190815260200160002060000160009054906101000a900473ffffffffffffffffffffffffffffffffffffffff169050919050565b600061092082610f52565b90508073ffffffffffffffffffffffffffffffffffffffff16610941611b37565b73ffffffffffffffffffffffffffffffffffffffff16146109a45761096d81610968611b37565b6119c0565b6109a3576040517fcfb3b94200000000000000000000000000000000000000000000000000000000815260040160405180910390fd5b5b826006600084815260200190815260200160002060000160006101000a81548173ffffffffffffffffffffffffffffffffffffffff021916908373ffffffffffffffffffffffffffffffffffffffff160217905550818373ffffffffffffffffffffffffffffffffffffffff168273ffffffffffffffffffffffffffffffffffffffff167f8c5be1e5ebec7d5bd14f71427d1e84f3dd0314c0f7b2291e5b200ac8c7c3b92560405160405180910390a4505050565b610a61611b3f565b80600c8190555050565b600a5481565b6000610a7b611bbd565b6001546000540303905090565b6000610a9382611bc2565b90508373ffffffffffffffffffffffffffffffffffffffff168173ffffffffffffffffffffffffffffffffffffffff1614610afa576040517fa114810000000000000000000000000000000000000000000000000000000000815260040160405180910390fd5b600080610b0684611c90565b91509150610b1c8187610b17611b37565b611cb7565b610b6857610b3186610b2c611b37565b6119c0565b610b67576040517f59c896be00000000000000000000000000000000000000000000000000000000815260040160405180910390fd5b5b600073ffffffffffffffffffffffffffffffffffffffff168573ffffffffffffffffffffffffffffffffffffffff161415610bcf576040517fea553b3400000000000000000000000000000000000000000000000000000000815260040160405180910390fd5b610bdc8686866001611cfb565b8015610be757600082555b600560008773ffffffffffffffffffffffffffffffffffffffff1673ffffffffffffffffffffffffffffffffffffffff168152602001908152602001600020600081546001900391905081905550600560008673ffffffffffffffffffffffffffffffffffffffff1673ffffffffffffffffffffffffffffffffffffffff1681526020019081526020016000206000815460010191905081905550610cb585610c91888887611d01565b7c020000000000000000000000000000000000000000000000000000000017611d29565b600460008681526020019081526020016000208190555060007c020000000000000000000000000000000000000000000000000000000084161415610d3d576000600185019050600060046000838152602001908152602001600020541415610d3b576000548114610d3a578360046000838152602001908152602001600020819055505b5b505b838573ffffffffffffffffffffffffffffffffffffffff168773ffffffffffffffffffffffffffffffffffffffff167fddf252ad1be2c89b69c2b068fc378daa952ba7f163c4a11628f55a4df523b3ef60405160405180910390a4610da58686866001611d54565b505050505050565b610db5611b3f565b6000610dbf611209565b73ffffffffffffffffffffffffffffffffffffffff1647604051610de290612eef565b60006040518083038185875af1925050503d8060008114610e1f576040519150601f19603f3d011682016040523d82523d6000602084013e610e24565b606091505b5050905080610e3257600080fd5b50565b610e50838383604051806020016040528060008152506117b1565b505050565b610e5d611b3f565b80600a8190555050565b610e6f611b3f565b8060099080519060200190610e859291906125e0565b5050565b6060600083839050905060008167ffffffffffffffff811115610eaf57610eae613451565b5b604051908082528060200260200182016040528015610ee857816020015b610ed5612666565b815260200190600190039081610ecd5790505b50905060005b828114610f4057610f17868683818110610f0b57610f0a613422565b5b90506020020135611824565b828281518110610f2a57610f29613422565b5b6020026020010181905250806001019050610eee565b50809250505092915050565b600c5481565b6000610f5d82611bc2565b9050919050565b60098054610f7190613332565b80601f0160208091040260200160405190810160405280929190818152602001828054610f9d90613332565b8015610fea5780601f10610fbf57610100808354040283529160200191610fea565b820191906000526020600020905b815481529060010190602001808311610fcd57829003601f168201915b505050505081565b60008073ffffffffffffffffffffffffffffffffffffffff168273ffffffffffffffffffffffffffffffffffffffff16141561105a576040517f8f4eb60400000000000000000000000000000000000000000000000000000000815260040160405180910390fd5b67ffffffffffffffff600560008473ffffffffffffffffffffffffffffffffffffffff1673ffffffffffffffffffffffffffffffffffffffff16815260200190815260200160002054169050919050565b6110b3611b3f565b6110bd6000611d5a565b565b606060008060006110cf85610ff2565b905060008167ffffffffffffffff8111156110ed576110ec613451565b5b60405190808252806020026020018201604052801561111b5781602001602082028036833780820191505090505b509050611126612666565b6000611130611bbd565b90505b8386146111fb5761114381611e20565b9150816040015115611154576111f0565b600073ffffffffffffffffffffffffffffffffffffffff16826000015173ffffffffffffffffffffffffffffffffffffffff161461119457816000015194505b8773ffffffffffffffffffffffffffffffffffffffff168573ffffffffffffffffffffffffffffffffffffffff1614156111ef57808387806001019850815181106111e2576111e1613422565b5b6020026020010181815250505b5b806001019050611133565b508195505050505050919050565b6000600860009054906101000a900473ffffffffffffffffffffffffffffffffffffffff16905090565b600b5481565b60606003805461124890613332565b80601f016020809104026020016040519081016040528092919081815260200182805461127490613332565b80156112c15780601f10611296576101008083540402835291602001916112c1565b820191906000526020600020905b8154815290600101906020018083116112a457829003601f168201915b5050505050905090565b6060818310611306576040517f32c1995a00000000000000000000000000000000000000000000000000000000815260040160405180910390fd5b600080611311611e4b565b905061131b611bbd565b85101561132d5761132a611bbd565b94505b80841115611339578093505b600061134487610ff2565b905084861015611367576000868603905081811015611361578091505b5061136c565b600090505b60008167ffffffffffffffff81111561138857611387613451565b5b6040519080825280602002602001820160405280156113b65781602001602082028036833780820191505090505b50905060008214156113ce57809450505050506114d8565b60006113d988611824565b9050600081604001516113ee57816000015190505b60008990505b8881141580156114045750848714155b156114ca5761141281611e20565b9250826040015115611423576114bf565b600073ffffffffffffffffffffffffffffffffffffffff16836000015173ffffffffffffffffffffffffffffffffffffffff161461146357826000015191505b8a73ffffffffffffffffffffffffffffffffffffffff168273ffffffffffffffffffffffffffffffffffffffff1614156114be57808488806001019950815181106114b1576114b0613422565b5b6020026020010181815250505b5b8060010190506113f4565b508583528296505050505050505b9392505050565b6001600c54141561151c576040517fa412966f00000000000000000000000000000000000000000000000000000000815260040160405180910390fd5b6000811415611557576040517f391128a800000000000000000000000000000000000000000000000000000000815260040160405180910390fd5b600b54811115611593576040517f82b946e000000000000000000000000000000000000000000000000000000000815260040160405180910390fd5b600061159d610a71565b90507f000000000000000000000000000000000000000000000000000000000000000082826115cc91906131a9565b1115611604576040517fab2861ad00000000000000000000000000000000000000000000000000000000815260040160405180910390fd5b61160c611209565b73ffffffffffffffffffffffffffffffffffffffff163373ffffffffffffffffffffffffffffffffffffffff16146116865781600a5461164c91906131ff565b341015611685576040517ff2d89eec00000000000000000000000000000000000000000000000000000000815260040160405180910390fd5b5b6116903383611e54565b5050565b80600760006116a1611b37565b73ffffffffffffffffffffffffffffffffffffffff1673ffffffffffffffffffffffffffffffffffffffff16815260200190815260200160002060008473ffffffffffffffffffffffffffffffffffffffff1673ffffffffffffffffffffffffffffffffffffffff16815260200190815260200160002060006101000a81548160ff0219169083151502179055508173ffffffffffffffffffffffffffffffffffffffff1661174e611b37565b73ffffffffffffffffffffffffffffffffffffffff167f17307eab39ab6107e8899845ad3d59bd9653f200f220920489ca2b5937696c31836040516117939190612faf565b60405180910390a35050565b6117a7611b3f565b80600b8190555050565b6117bc848484610a88565b60008373ffffffffffffffffffffffffffffffffffffffff163b1461181e576117e784848484611e72565b61181d576040517fd1a57ed600000000000000000000000000000000000000000000000000000000815260040160405180910390fd5b5b50505050565b61182c612666565b611834612666565b61183c611bbd565b831080611850575061184c611e4b565b8310155b1561185e5780915050611889565b61186783611e20565b905080604001511561187c5780915050611889565b61188583611fd2565b9150505b919050565b6040518060400160405280600581526020017f2e6a736f6e00000000000000000000000000000000000000000000000000000081525081565b60606118d282611ad8565b611908576040517f363e344f00000000000000000000000000000000000000000000000000000000815260040160405180910390fd5b6000611912611ff2565b905060008151116119325760405180602001604052806000815250611994565b8061193c84612084565b6040518060400160405280600581526020017f2e6a736f6e00000000000000000000000000000000000000000000000000000081525060405160200161198493929190612ebe565b6040516020818303038152906040525b915050919050565b7f000000000000000000000000000000000000000000000000000000000000000081565b6000600760008473ffffffffffffffffffffffffffffffffffffffff1673ffffffffffffffffffffffffffffffffffffffff16815260200190815260200160002060008373ffffffffffffffffffffffffffffffffffffffff1673ffffffffffffffffffffffffffffffffffffffff16815260200190815260200160002060009054906101000a900460ff16905092915050565b611a5c611b3f565b600073ffffffffffffffffffffffffffffffffffffffff168173ffffffffffffffffffffffffffffffffffffffff161415611acc576040517f08c379a0000000000000000000000000000000000000000000000000000000008152600401611ac390612fec565b60405180910390fd5b611ad581611d5a565b50565b600081611ae3611bbd565b11158015611af2575060005482105b8015611b30575060007c0100000000000000000000000000000000000000000000000000000000600460008581526020019081526020016000205416145b9050919050565b600033905090565b611b4761215c565b73ffffffffffffffffffffffffffffffffffffffff16611b65611209565b73ffffffffffffffffffffffffffffffffffffffff1614611bbb576040517f08c379a0000000000000000000000000000000000000000000000000000000008152600401611bb29061300c565b60405180910390fd5b565b600090565b60008082905080611bd1611bbd565b11611c5957600054811015611c585760006004600083815260200190815260200160002054905060007c010000000000000000000000000000000000000000000000000000000082161415611c56575b6000811415611c4c576004600083600190039350838152602001908152602001600020549050611c21565b8092505050611c8b565b505b5b6040517fdf2d9b4200000000000000000000000000000000000000000000000000000000815260040160405180910390fd5b919050565b60008060006006600085815260200190815260200160002090508092508254915050915091565b600073ffffffffffffffffffffffffffffffffffffffff8316925073ffffffffffffffffffffffffffffffffffffffff821691508382148383141790509392505050565b50505050565b60008060e883901c905060e8611d18868684612164565b62ffffff16901b9150509392505050565b600073ffffffffffffffffffffffffffffffffffffffff83169250814260a01b178317905092915050565b50505050565b6000600860009054906101000a900473ffffffffffffffffffffffffffffffffffffffff16905081600860006101000a81548173ffffffffffffffffffffffffffffffffffffffff021916908373ffffffffffffffffffffffffffffffffffffffff1602179055508173ffffffffffffffffffffffffffffffffffffffff168173ffffffffffffffffffffffffffffffffffffffff167f8be0079c531659141344cd1fd0a4f28419497f9722a3daafe3b4186f6b6457e060405160405180910390a35050565b611e28612666565b611e44600460008481526020019081526020016000205461216d565b9050919050565b60008054905090565b611e6e828260405180602001604052806000815250612223565b5050565b60008373ffffffffffffffffffffffffffffffffffffffff1663150b7a02611e98611b37565b8786866040518563ffffffff1660e01b8152600401611eba9493929190612f1f565b602060405180830381600087803b158015611ed457600080fd5b505af1925050508015611f0557506040513d601f19601f82011682018060405250810190611f029190612b01565b60015b611f7f573d8060008114611f35576040519150601f19603f3d011682016040523d82523d6000602084013e611f3a565b606091505b50600081511415611f77576040517fd1a57ed600000000000000000000000000000000000000000000000000000000815260040160405180910390fd5b805181602001fd5b63150b7a0260e01b7bffffffffffffffffffffffffffffffffffffffffffffffffffffffff1916817bffffffffffffffffffffffffffffffffffffffffffffffffffffffff191614915050949350505050565b611fda612666565b611feb611fe683611bc2565b61216d565b9050919050565b60606009805461200190613332565b80601f016020809104026020016040519081016040528092919081815260200182805461202d90613332565b801561207a5780601f1061204f5761010080835404028352916020019161207a565b820191906000526020600020905b81548152906001019060200180831161205d57829003601f168201915b5050505050905090565b606060006001612093846122c0565b01905060008167ffffffffffffffff8111156120b2576120b1613451565b5b6040519080825280601f01601f1916602001820160405280156120e45781602001600182028036833780820191505090505b509050600082602001820190505b600115612151578080600190039150507f3031323334353637383961626364656600000000000000000000000000000000600a86061a8153600a858161213b5761213a6133c4565b5b049450600085141561214c57612151565b6120f2565b819350505050919050565b600033905090565b60009392505050565b612175612666565b81816000019073ffffffffffffffffffffffffffffffffffffffff16908173ffffffffffffffffffffffffffffffffffffffff168152505060a082901c816020019067ffffffffffffffff16908167ffffffffffffffff168152505060007c01000000000000000000000000000000000000000000000000000000008316141581604001901515908115158152505060e882901c816060019062ffffff16908162ffffff1681525050919050565b61222d8383612413565b60008373ffffffffffffffffffffffffffffffffffffffff163b146122bb57600080549050600083820390505b61226d6000868380600101945086611e72565b6122a3576040517fd1a57ed600000000000000000000000000000000000000000000000000000000815260040160405180910390fd5b81811061225a5781600054146122b857600080fd5b50505b505050565b600080600090507a184f03e93ff9f4daa797ed6e38ed64bf6a1f010000000000000000831061231e577a184f03e93ff9f4daa797ed6e38ed64bf6a1f0100000000000000008381612314576123136133c4565b5b0492506040810190505b6d04ee2d6d415b85acef8100000000831061235b576d04ee2d6d415b85acef81000000008381612351576123506133c4565b5b0492506020810190505b662386f26fc10000831061238a57662386f26fc1000083816123805761237f6133c4565b5b0492506010810190505b6305f5e10083106123b3576305f5e10083816123a9576123a86133c4565b5b0492506008810190505b61271083106123d85761271083816123ce576123cd6133c4565b5b0492506004810190505b606483106123fb57606483816123f1576123f06133c4565b5b0492506002810190505b600a831061240a576001810190505b80915050919050565b6000805490506000821415612454576040517fb562e8dd00000000000000000000000000000000000000000000000000000000815260040160405180910390fd5b6124616000848385611cfb565b600160406001901b178202600560008573ffffffffffffffffffffffffffffffffffffffff1673ffffffffffffffffffffffffffffffffffffffff168152602001908152602001600020600082825401925050819055506124d8836124c96000866000611d01565b6124d2856125d0565b17611d29565b6004600083815260200190815260200160002081905550600080838301905073ffffffffffffffffffffffffffffffffffffffff85169150828260007fddf252ad1be2c89b69c2b068fc378daa952ba7f163c4a11628f55a4df523b3ef600080a4600183015b81811461257957808360007fddf252ad1be2c89b69c2b068fc378daa952ba7f163c4a11628f55a4df523b3ef600080a460018101905061253e565b5060008214156125b5576040517f2e07630000000000000000000000000000000000000000000000000000000000815260040160405180910390fd5b8060008190555050506125cb6000848385611d54565b505050565b60006001821460e11b9050919050565b8280546125ec90613332565b90600052602060002090601f01602090048101928261260e5760008555612655565b82601f1061262757805160ff1916838001178555612655565b82800160010185558215612655579182015b82811115612654578251825591602001919060010190612639565b5b50905061266291906126b5565b5090565b6040518060800160405280600073ffffffffffffffffffffffffffffffffffffffff168152602001600067ffffffffffffffff168152602001600015158152602001600062ffffff1681525090565b5b808211156126ce5760008160009055506001016126b6565b5090565b60006126e56126e084613087565b613062565b9050828152602081018484840111156127015761270061348f565b5b61270c8482856132f0565b509392505050565b6000612727612722846130b8565b613062565b9050828152602081018484840111156127435761274261348f565b5b61274e8482856132f0565b509392505050565b6000813590506127658161352a565b92915050565b60008083601f84011261278157612780613485565b5b8235905067ffffffffffffffff81111561279e5761279d613480565b5b6020830191508360208202830111156127ba576127b961348a565b5b9250929050565b6000813590506127d081613541565b92915050565b6000813590506127e581613558565b92915050565b6000815190506127fa81613558565b92915050565b600082601f83011261281557612814613485565b5b81356128258482602086016126d2565b91505092915050565b600082601f83011261284357612842613485565b5b8135612853848260208601612714565b91505092915050565b60008135905061286b8161356f565b92915050565b60006020828403121561288757612886613499565b5b600061289584828501612756565b91505092915050565b600080604083850312156128b5576128b4613499565b5b60006128c385828601612756565b92505060206128d485828601612756565b9150509250929050565b6000806000606084860312156128f7576128f6613499565b5b600061290586828701612756565b935050602061291686828701612756565b92505060406129278682870161285c565b9150509250925092565b6000806000806080858703121561294b5761294a613499565b5b600061295987828801612756565b945050602061296a87828801612756565b935050604061297b8782880161285c565b925050606085013567ffffffffffffffff81111561299c5761299b613494565b5b6129a887828801612800565b91505092959194509250565b600080604083850312156129cb576129ca613499565b5b60006129d985828601612756565b92505060206129ea858286016127c1565b9150509250929050565b60008060408385031215612a0b57612a0a613499565b5b6000612a1985828601612756565b9250506020612a2a8582860161285c565b9150509250929050565b600080600060608486031215612a4d57612a4c613499565b5b6000612a5b86828701612756565b9350506020612a6c8682870161285c565b9250506040612a7d8682870161285c565b9150509250925092565b60008060208385031215612a9e57612a9d613499565b5b600083013567ffffffffffffffff811115612abc57612abb613494565b5b612ac88582860161276b565b92509250509250929050565b600060208284031215612aea57612ae9613499565b5b6000612af8848285016127d6565b91505092915050565b600060208284031215612b1757612b16613499565b5b6000612b25848285016127eb565b91505092915050565b600060208284031215612b4457612b43613499565b5b600082013567ffffffffffffffff811115612b6257612b61613494565b5b612b6e8482850161282e565b91505092915050565b600060208284031215612b8d57612b8c613499565b5b6000612b9b8482850161285c565b91505092915050565b6000612bb08383612dd8565b60808301905092915050565b6000612bc88383612e91565b60208301905092915050565b612bdd81613259565b82525050565b612bec81613259565b82525050565b6000612bfd82613109565b612c07818561314f565b9350612c12836130e9565b8060005b83811015612c43578151612c2a8882612ba4565b9750612c3583613135565b925050600181019050612c16565b5085935050505092915050565b6000612c5b82613114565b612c658185613160565b9350612c70836130f9565b8060005b83811015612ca1578151612c888882612bbc565b9750612c9383613142565b925050600181019050612c74565b5085935050505092915050565b612cb78161326b565b82525050565b612cc68161326b565b82525050565b6000612cd78261311f565b612ce18185613171565b9350612cf18185602086016132ff565b612cfa8161349e565b840191505092915050565b6000612d108261312a565b612d1a818561318d565b9350612d2a8185602086016132ff565b612d338161349e565b840191505092915050565b6000612d498261312a565b612d53818561319e565b9350612d638185602086016132ff565b80840191505092915050565b6000612d7c60268361318d565b9150612d87826134af565b604082019050919050565b6000612d9f60208361318d565b9150612daa826134fe565b602082019050919050565b6000612dc2600083613182565b9150612dcd82613527565b600082019050919050565b608082016000820151612dee6000850182612bd4565b506020820151612e016020850182612eaf565b506040820151612e146040850182612cae565b506060820151612e276060850182612e82565b50505050565b608082016000820151612e436000850182612bd4565b506020820151612e566020850182612eaf565b506040820151612e696040850182612cae565b506060820151612e7c6060850182612e82565b50505050565b612e8b816132c3565b82525050565b612e9a816132d2565b82525050565b612ea9816132d2565b82525050565b612eb8816132dc565b82525050565b6000612eca8286612d3e565b9150612ed68285612d3e565b9150612ee28284612d3e565b9150819050949350505050565b6000612efa82612db5565b9150819050919050565b6000602082019050612f196000830184612be3565b92915050565b6000608082019050612f346000830187612be3565b612f416020830186612be3565b612f4e6040830185612ea0565b8181036060830152612f608184612ccc565b905095945050505050565b60006020820190508181036000830152612f858184612bf2565b905092915050565b60006020820190508181036000830152612fa78184612c50565b905092915050565b6000602082019050612fc46000830184612cbd565b92915050565b60006020820190508181036000830152612fe48184612d05565b905092915050565b6000602082019050818103600083015261300581612d6f565b9050919050565b6000602082019050818103600083015261302581612d92565b9050919050565b60006080820190506130416000830184612e2d565b92915050565b600060208201905061305c6000830184612ea0565b92915050565b600061306c61307d565b90506130788282613364565b919050565b6000604051905090565b600067ffffffffffffffff8211156130a2576130a1613451565b5b6130ab8261349e565b9050602081019050919050565b600067ffffffffffffffff8211156130d3576130d2613451565b5b6130dc8261349e565b9050602081019050919050565b6000819050602082019050919050565b6000819050602082019050919050565b600081519050919050565b600081519050919050565b600081519050919050565b600081519050919050565b6000602082019050919050565b6000602082019050919050565b600082825260208201905092915050565b600082825260208201905092915050565b600082825260208201905092915050565b600081905092915050565b600082825260208201905092915050565b600081905092915050565b60006131b4826132d2565b91506131bf836132d2565b9250827fffffffffffffffffffffffffffffffffffffffffffffffffffffffffffffffff038211156131f4576131f3613395565b5b828201905092915050565b600061320a826132d2565b9150613215836132d2565b9250817fffffffffffffffffffffffffffffffffffffffffffffffffffffffffffffffff048311821515161561324e5761324d613395565b5b828202905092915050565b6000613264826132a3565b9050919050565b60008115159050919050565b60007fffffffff0000000000000000000000000000000000000000000000000000000082169050919050565b600073ffffffffffffffffffffffffffffffffffffffff82169050919050565b600062ffffff82169050919050565b6000819050919050565b600067ffffffffffffffff82169050919050565b82818337600083830152505050565b60005b8381101561331d578082015181840152602081019050613302565b8381111561332c576000848401525b50505050565b6000600282049050600182168061334a57607f821691505b6020821081141561335e5761335d6133f3565b5b50919050565b61336d8261349e565b810181811067ffffffffffffffff8211171561338c5761338b613451565b5b80604052505050565b7f4e487b7100000000000000000000000000000000000000000000000000000000600052601160045260246000fd5b7f4e487b7100000000000000000000000000000000000000000000000000000000600052601260045260246000fd5b7f4e487b7100000000000000000000000000000000000000000000000000000000600052602260045260246000fd5b7f4e487b7100000000000000000000000000000000000000000000000000000000600052603260045260246000fd5b7f4e487b7100000000000000000000000000000000000000000000000000000000600052604160045260246000fd5b600080fd5b600080fd5b600080fd5b600080fd5b600080fd5b600080fd5b6000601f19601f8301169050919050565b7f4f776e61626c653a206e6577206f776e657220697320746865207a65726f206160008201527f6464726573730000000000000000000000000000000000000000000000000000602082015250565b7f4f776e61626c653a2063616c6c6572206973206e6f7420746865206f776e6572600082015250565b50565b61353381613259565b811461353e57600080fd5b50565b61354a8161326b565b811461355557600080fd5b50565b61356181613277565b811461356c57600080fd5b50565b613578816132d2565b811461358357600080fd5b5056fea26469706673582212204ec479e01101ee3829b3da0023123b920b9420d1b4933682ea8ae11b383af59764736f6c63430008070033",
  "linkReferences": {},
  "deployedLinkReferences": {}
}