{
  "_format": "hh-sol-artifact-1",
  "contractName": "Vault",
  "sourceName": "contracts/Vault.sol",
  "abi": [
    {
      "inputs": [
        {
          "internalType": "address",
          "name": "_nftAddress",
          "type": "address"
        },
        {
          "internalType": "address",
          "name": "_tokenAddress",
          "type": "address"
        }
      ],
      "stateMutability": "nonpayable",
      "type": "constructor"
    },
    {
      "inputs": [],
      "name": "NFTStakingVault__ItemAlreadyStaked",
      "type": "error"
    },
    {
      "inputs": [],
      "name": "NFTStakingVault__NotItemOwner",
      "type": "error"
    },
    {
      "anonymous": false,
      "inputs": [
        {
          "indexed": false,
          "internalType": "address",
          "name": "owner",
          "type": "address"
        },
        {
          "indexed": false,
          "internalType": "uint256",
          "name": "reward",
          "type": "uint256"
        }
      ],
      "name": "Claimed",
      "type": "event"
    },
    {
      "anonymous": false,
      "inputs": [
        {
          "indexed": false,
          "internalType": "uint256[]",
          "name": "tokenId",
          "type": "uint256[]"
        },
        {
          "indexed": false,
          "internalType": "address",
          "name": "owner",
          "type": "address"
        }
      ],
      "name": "ItemsStaked",
      "type": "event"
    },
    {
      "anonymous": false,
      "inputs": [
        {
          "indexed": false,
          "internalType": "uint256[]",
          "name": "tokenIds",
          "type": "uint256[]"
        },
        {
          "indexed": false,
          "internalType": "address",
          "name": "owner",
          "type": "address"
        }
      ],
      "name": "ItemsUnstaked",
      "type": "event"
    },
    {
      "anonymous": false,
      "inputs": [
        {
          "indexed": true,
          "internalType": "address",
          "name": "previousOwner",
          "type": "address"
        },
        {
          "indexed": true,
          "internalType": "address",
          "name": "newOwner",
          "type": "address"
        }
      ],
      "name": "OwnershipTransferred",
      "type": "event"
    },
    {
      "inputs": [
        {
          "internalType": "address",
          "name": "user",
          "type": "address"
        }
      ],
      "name": "balanceOf",
      "outputs": [
        {
          "internalType": "uint256",
          "name": "nftStakedbalance",
          "type": "uint256"
        }
      ],
      "stateMutability": "view",
      "type": "function"
    },
    {
      "inputs": [
        {
          "internalType": "uint256[]",
          "name": "tokenIds",
          "type": "uint256[]"
        }
      ],
      "name": "claim",
      "outputs": [],
      "stateMutability": "nonpayable",
      "type": "function"
    },
    {
      "inputs": [
        {
          "internalType": "uint256",
          "name": "stakingPeriod",
          "type": "uint256"
        }
      ],
      "name": "getDailyReward",
      "outputs": [
        {
          "internalType": "uint256",
          "name": "dailyReward",
          "type": "uint256"
        }
      ],
      "stateMutability": "pure",
      "type": "function"
    },
    {
      "inputs": [
        {
          "internalType": "uint256",
          "name": "_tokenId",
          "type": "uint256"
        }
      ],
      "name": "getRewardEarnedPerNft",
      "outputs": [
        {
          "internalType": "uint256",
          "name": "rewardEarned",
          "type": "uint256"
        }
      ],
      "stateMutability": "view",
      "type": "function"
    },
    {
      "inputs": [
        {
          "internalType": "address",
          "name": "user",
          "type": "address"
        }
      ],
      "name": "getTotalRewardEarned",
      "outputs": [
        {
          "internalType": "uint256",
          "name": "rewardEarned",
          "type": "uint256"
        }
      ],
      "stateMutability": "view",
      "type": "function"
    },
    {
      "inputs": [
        {
          "internalType": "address",
          "name": "",
          "type": "address"
        },
        {
          "internalType": "address",
          "name": "",
          "type": "address"
        },
        {
          "internalType": "uint256",
          "name": "",
          "type": "uint256"
        },
        {
          "internalType": "bytes",
          "name": "",
          "type": "bytes"
        }
      ],
      "name": "onERC721Received",
      "outputs": [
        {
          "internalType": "bytes4",
          "name": "",
          "type": "bytes4"
        }
      ],
      "stateMutability": "pure",
      "type": "function"
    },
    {
      "inputs": [],
      "name": "owner",
      "outputs": [
        {
          "internalType": "address",
          "name": "",
          "type": "address"
        }
      ],
      "stateMutability": "view",
      "type": "function"
    },
    {
      "inputs": [],
      "name": "renounceOwnership",
      "outputs": [],
      "stateMutability": "nonpayable",
      "type": "function"
    },
    {
      "inputs": [
        {
          "internalType": "uint256[]",
          "name": "tokenIds",
          "type": "uint256[]"
        }
      ],
      "name": "stake",
      "outputs": [],
      "stateMutability": "nonpayable",
      "type": "function"
    },
    {
      "inputs": [
        {
          "internalType": "address",
          "name": "user",
          "type": "address"
        }
      ],
      "name": "tokensOfOwner",
      "outputs": [
        {
          "internalType": "uint256[]",
          "name": "tokens",
          "type": "uint256[]"
        }
      ],
      "stateMutability": "view",
      "type": "function"
    },
    {
      "inputs": [],
      "name": "totalItemsStaked",
      "outputs": [
        {
          "internalType": "uint256",
          "name": "",
          "type": "uint256"
        }
      ],
      "stateMutability": "view",
      "type": "function"
    },
    {
      "inputs": [
        {
          "internalType": "address",
          "name": "newOwner",
          "type": "address"
        }
      ],
      "name": "transferOwnership",
      "outputs": [],
      "stateMutability": "nonpayable",
      "type": "function"
    },
    {
      "inputs": [
        {
          "internalType": "uint256[]",
          "name": "tokenIds",
          "type": "uint256[]"
        }
      ],
      "name": "unstake",
      "outputs": [],
      "stateMutability": "nonpayable",
      "type": "function"
    }
  ],
  "bytecode": "0x60c06040523480156200001157600080fd5b5060405162001d2838038062001d288339818101604052810190620000379190620001b0565b620000576200004b620000cd60201b60201c565b620000d560201b60201c565b8173ffffffffffffffffffffffffffffffffffffffff1660808173ffffffffffffffffffffffffffffffffffffffff1660601b815250508073ffffffffffffffffffffffffffffffffffffffff1660a08173ffffffffffffffffffffffffffffffffffffffff1660601b8152505050506200024a565b600033905090565b60008060009054906101000a900473ffffffffffffffffffffffffffffffffffffffff169050816000806101000a81548173ffffffffffffffffffffffffffffffffffffffff021916908373ffffffffffffffffffffffffffffffffffffffff1602179055508173ffffffffffffffffffffffffffffffffffffffff168173ffffffffffffffffffffffffffffffffffffffff167f8be0079c531659141344cd1fd0a4f28419497f9722a3daafe3b4186f6b6457e060405160405180910390a35050565b600081519050620001aa8162000230565b92915050565b60008060408385031215620001ca57620001c96200022b565b5b6000620001da8582860162000199565b9250506020620001ed8582860162000199565b9150509250929050565b600062000204826200020b565b9050919050565b600073ffffffffffffffffffffffffffffffffffffffff82169050919050565b600080fd5b6200023b81620001f7565b81146200024757600080fd5b50565b60805160601c60a05160601c611a96620002926000396000610d760152600081816103910152818161048701528181610772015281816108c401526110370152611a966000f3fe608060405234801561001057600080fd5b50600436106100cf5760003560e01c806370a082311161008c5780638da5cb5b116100665780638da5cb5b14610224578063d88d200014610242578063e449f34114610272578063f2fde38b1461028e576100cf565b806370a08231146101ba578063715018a6146101ea5780638462151c146101f4576100cf565b80630fbf0a93146100d4578063150b7a02146100f057806333e5877914610120578063454938e01461013e5780635704589c1461016e5780636ba4c1381461019e575b600080fd5b6100ee60048036038101906100e9919061135e565b6102aa565b005b61010a600480360381019061010591906112d6565b610610565b604051610117919061164b565b60405180910390f35b610128610625565b60405161013591906116c6565b60405180910390f35b6101586004803603810190610153919061127c565b61062b565b60405161016591906116c6565b60405180910390f35b610188600480360381019061018391906113ab565b6106ec565b60405161019591906116c6565b60405180910390f35b6101b860048036038101906101b3919061135e565b61075c565b005b6101d460048036038101906101cf919061127c565b61076d565b6040516101e191906116c6565b60405180910390f35b6101f261089d565b005b61020e6004803603810190610209919061127c565b6108b1565b60405161021b9190611629565b60405180910390f35b61022c610a82565b604051610239919061157c565b60405180910390f35b61025c600480360381019061025791906113ab565b610aab565b60405161026991906116c6565b60405180910390f35b61028c6004803603810190610287919061135e565b610abd565b005b6102a860048036038101906102a3919061127c565b610ace565b005b600080600084849050905060005b818110156105b9578585828181106102d3576102d2611915565b5b905060200201359350600073ffffffffffffffffffffffffffffffffffffffff166002600086815260200190815260200160002060000160009054906101000a900473ffffffffffffffffffffffffffffffffffffffff1673ffffffffffffffffffffffffffffffffffffffff1614610378576040517fc706acb600000000000000000000000000000000000000000000000000000000815260040160405180910390fd5b3373ffffffffffffffffffffffffffffffffffffffff167f000000000000000000000000000000000000000000000000000000000000000073ffffffffffffffffffffffffffffffffffffffff16636352211e866040518263ffffffff1660e01b81526004016103e891906116c6565b60206040518083038186803b15801561040057600080fd5b505afa158015610414573d6000803e3d6000fd5b505050506040513d601f19601f8201168201806040525081019061043891906112a9565b73ffffffffffffffffffffffffffffffffffffffff1614610485576040517ff653d4c600000000000000000000000000000000000000000000000000000000815260040160405180910390fd5b7f000000000000000000000000000000000000000000000000000000000000000073ffffffffffffffffffffffffffffffffffffffff166342842e0e3330876040518463ffffffff1660e01b81526004016104e293929190611597565b600060405180830381600087803b1580156104fc57600080fd5b505af1158015610510573d6000803e3d6000fd5b5050505060405180604001604052803373ffffffffffffffffffffffffffffffffffffffff168152602001428152506002600086815260200190815260200160002060008201518160000160006101000a81548173ffffffffffffffffffffffffffffffffffffffff021916908373ffffffffffffffffffffffffffffffffffffffff1602179055506020820151816001015590505082806001019350508060010190506102b8565b50816001546105c8919061172b565b6001819055507f05be9727e5f8ef44e5ef226f3d7f8c202aad4325901b4639a0f27f39d7cdccfb858533604051610601939291906115f7565b60405180910390a15050505050565b600063150b7a0260e01b905095945050505050565b60015481565b600080610637836108b1565b905060008151905060005b818110156106e45760006002600085848151811061066357610662611915565b5b602002602001015181526020019081526020016000206001015490506000814261068d919061180c565b9050600061069a82610b52565b905062015180670de0b6b3a764000083836106b591906117b2565b6106bf91906117b2565b6106c99190611781565b876106d4919061172b565b9650836001019350505050610642565b505050919050565b6000806002600084815260200190815260200160002060010154905060008142610716919061180c565b9050600061072382610b52565b905062015180670de0b6b3a7640000838361073e91906117b2565b61074891906117b2565b6107529190611781565b9350505050919050565b6107693383836000610bca565b5050565b6000807f000000000000000000000000000000000000000000000000000000000000000073ffffffffffffffffffffffffffffffffffffffff166318160ddd6040518163ffffffff1660e01b815260040160206040518083038186803b1580156107d657600080fd5b505afa1580156107ea573d6000803e3d6000fd5b505050506040513d601f19601f8201168201806040525081019061080e91906113d8565b905060005b818111610896578373ffffffffffffffffffffffffffffffffffffffff166002600083815260200190815260200160002060000160009054906101000a900473ffffffffffffffffffffffffffffffffffffffff1673ffffffffffffffffffffffffffffffffffffffff16141561088b576001830192505b806001019050610813565b5050919050565b6108a5610e1d565b6108af6000610e9b565b565b606060006108be8361076d565b905060007f000000000000000000000000000000000000000000000000000000000000000073ffffffffffffffffffffffffffffffffffffffff166318160ddd6040518163ffffffff1660e01b815260040160206040518083038186803b15801561092857600080fd5b505afa15801561093c573d6000803e3d6000fd5b505050506040513d601f19601f8201168201806040525081019061096091906113d8565b90508167ffffffffffffffff81111561097c5761097b611944565b5b6040519080825280602002602001820160405280156109aa5781602001602082028036833780820191505090505b5092506000808314156109bf57505050610a7d565b60005b828111610a78578573ffffffffffffffffffffffffffffffffffffffff166002600083815260200190815260200160002060000160009054906101000a900473ffffffffffffffffffffffffffffffffffffffff1673ffffffffffffffffffffffffffffffffffffffff161415610a5c5780858381518110610a4757610a46611915565b5b60200260200101818152505081806001019250505b83821415610a6d5750505050610a7d565b8060010190506109c2565b505050505b919050565b60008060009054906101000a900473ffffffffffffffffffffffffffffffffffffffff16905090565b6000610ab682610b52565b9050919050565b610aca3383836001610bca565b5050565b610ad6610e1d565b600073ffffffffffffffffffffffffffffffffffffffff168173ffffffffffffffffffffffffffffffffffffffff161415610b46576040517f08c379a0000000000000000000000000000000000000000000000000000000008152600401610b3d90611666565b60405180910390fd5b610b4f81610e9b565b50565b600062278d008211610b675760019050610bc5565b62278d006003610b7791906117b2565b821015610b875760029050610bc4565b62278d006006610b9791906117b2565b821015610ba75760049050610bc3565b62278d006006610bb791906117b2565b8210610bc257600890505b5b5b5b919050565b600080600085859050905060005b81811015610d3257868682818110610bf357610bf2611915565b5b9050602002013593508773ffffffffffffffffffffffffffffffffffffffff166002600086815260200190815260200160002060000160009054906101000a900473ffffffffffffffffffffffffffffffffffffffff1673ffffffffffffffffffffffffffffffffffffffff1614610c97576040517ff653d4c600000000000000000000000000000000000000000000000000000000815260040160405180910390fd5b60006002600086815260200190815260200160002060010154905060008142610cc0919061180c565b90506000610ccd82610b52565b905062015180670de0b6b3a76400008383610ce891906117b2565b610cf291906117b2565b610cfc9190611781565b86610d07919061172b565b9550426002600089815260200190815260200160002060010181905550836001019350505050610bd8565b507fd8138f8a3f377c5259ca548e70e4c2de94f129f5a11036a15b69513cba2b426a8783604051610d649291906115ce565b60405180910390a160008214610e02577f000000000000000000000000000000000000000000000000000000000000000073ffffffffffffffffffffffffffffffffffffffff166340c10f1988846040518363ffffffff1660e01b8152600401610dcf9291906115ce565b600060405180830381600087803b158015610de957600080fd5b505af1158015610dfd573d6000803e3d6000fd5b505050505b8315610e1457610e13878787610f5f565b5b50505050505050565b610e25611174565b73ffffffffffffffffffffffffffffffffffffffff16610e43610a82565b73ffffffffffffffffffffffffffffffffffffffff1614610e99576040517f08c379a0000000000000000000000000000000000000000000000000000000008152600401610e90906116a6565b60405180910390fd5b565b60008060009054906101000a900473ffffffffffffffffffffffffffffffffffffffff169050816000806101000a81548173ffffffffffffffffffffffffffffffffffffffff021916908373ffffffffffffffffffffffffffffffffffffffff1602179055508173ffffffffffffffffffffffffffffffffffffffff168173ffffffffffffffffffffffffffffffffffffffff167f8be0079c531659141344cd1fd0a4f28419497f9722a3daafe3b4186f6b6457e060405160405180910390a35050565b600080600084849050905060005b8181101561111c57858582818110610f8857610f87611915565b5b9050602002013593508673ffffffffffffffffffffffffffffffffffffffff166002600086815260200190815260200160002060000160009054906101000a900473ffffffffffffffffffffffffffffffffffffffff1673ffffffffffffffffffffffffffffffffffffffff1614611035576040517f08c379a000000000000000000000000000000000000000000000000000000000815260040161102c90611686565b60405180910390fd5b7f000000000000000000000000000000000000000000000000000000000000000073ffffffffffffffffffffffffffffffffffffffff166342842e0e3089876040518463ffffffff1660e01b815260040161109293929190611597565b600060405180830381600087803b1580156110ac57600080fd5b505af11580156110c0573d6000803e3d6000fd5b5050505060026000858152602001908152602001600020600080820160006101000a81549073ffffffffffffffffffffffffffffffffffffffff0219169055600182016000905550508280600101935050806001019050610f6d565b508160015461112b919061180c565b6001819055507fce2f10e8afa473f84590e633f11ac65e6b99348175c4246f429ef398ccae7612858588604051611164939291906115f7565b60405180910390a1505050505050565b600033905090565b60008135905061118b81611a32565b92915050565b6000815190506111a081611a32565b92915050565b60008083601f8401126111bc576111bb611978565b5b8235905067ffffffffffffffff8111156111d9576111d8611973565b5b6020830191508360208202830111156111f5576111f461197d565b5b9250929050565b60008083601f84011261121257611211611978565b5b8235905067ffffffffffffffff81111561122f5761122e611973565b5b60208301915083600182028301111561124b5761124a61197d565b5b9250929050565b60008135905061126181611a49565b92915050565b60008151905061127681611a49565b92915050565b6000602082840312156112925761129161198c565b5b60006112a08482850161117c565b91505092915050565b6000602082840312156112bf576112be61198c565b5b60006112cd84828501611191565b91505092915050565b6000806000806000608086880312156112f2576112f161198c565b5b60006113008882890161117c565b95505060206113118882890161117c565b945050604061132288828901611252565b935050606086013567ffffffffffffffff81111561134357611342611982565b5b61134f888289016111fc565b92509250509295509295909350565b600080602083850312156113755761137461198c565b5b600083013567ffffffffffffffff81111561139357611392611982565b5b61139f858286016111a6565b92509250509250929050565b6000602082840312156113c1576113c061198c565b5b60006113cf84828501611252565b91505092915050565b6000602082840312156113ee576113ed61198c565b5b60006113fc84828501611267565b91505092915050565b6000611411838361155e565b60208301905092915050565b61142681611840565b82525050565b60006114388385611709565b93507f07ffffffffffffffffffffffffffffffffffffffffffffffffffffffffffffff83111561146b5761146a611987565b5b60208302925061147c8385846118a8565b82840190509392505050565b6000611493826116f1565b61149d8185611709565b93506114a8836116e1565b8060005b838110156114d95781516114c08882611405565b97506114cb836116fc565b9250506001810190506114ac565b5085935050505092915050565b6114ef81611852565b82525050565b600061150260268361171a565b915061150d82611991565b604082019050919050565b600061152560098361171a565b9150611530826119e0565b602082019050919050565b600061154860208361171a565b915061155382611a09565b602082019050919050565b6115678161189e565b82525050565b6115768161189e565b82525050565b6000602082019050611591600083018461141d565b92915050565b60006060820190506115ac600083018661141d565b6115b9602083018561141d565b6115c6604083018461156d565b949350505050565b60006040820190506115e3600083018561141d565b6115f0602083018461156d565b9392505050565b6000604082019050818103600083015261161281858761142c565b9050611621602083018461141d565b949350505050565b600060208201905081810360008301526116438184611488565b905092915050565b600060208201905061166060008301846114e6565b92915050565b6000602082019050818103600083015261167f816114f5565b9050919050565b6000602082019050818103600083015261169f81611518565b9050919050565b600060208201905081810360008301526116bf8161153b565b9050919050565b60006020820190506116db600083018461156d565b92915050565b6000819050602082019050919050565b600081519050919050565b6000602082019050919050565b600082825260208201905092915050565b600082825260208201905092915050565b60006117368261189e565b91506117418361189e565b9250827fffffffffffffffffffffffffffffffffffffffffffffffffffffffffffffffff03821115611776576117756118b7565b5b828201905092915050565b600061178c8261189e565b91506117978361189e565b9250826117a7576117a66118e6565b5b828204905092915050565b60006117bd8261189e565b91506117c88361189e565b9250817fffffffffffffffffffffffffffffffffffffffffffffffffffffffffffffffff0483118215151615611801576118006118b7565b5b828202905092915050565b60006118178261189e565b91506118228361189e565b925082821015611835576118346118b7565b5b828203905092915050565b600061184b8261187e565b9050919050565b60007fffffffff0000000000000000000000000000000000000000000000000000000082169050919050565b600073ffffffffffffffffffffffffffffffffffffffff82169050919050565b6000819050919050565b82818337600083830152505050565b7f4e487b7100000000000000000000000000000000000000000000000000000000600052601160045260246000fd5b7f4e487b7100000000000000000000000000000000000000000000000000000000600052601260045260246000fd5b7f4e487b7100000000000000000000000000000000000000000000000000000000600052603260045260246000fd5b7f4e487b7100000000000000000000000000000000000000000000000000000000600052604160045260246000fd5b600080fd5b600080fd5b600080fd5b600080fd5b600080fd5b600080fd5b7f4f776e61626c653a206e6577206f776e657220697320746865207a65726f206160008201527f6464726573730000000000000000000000000000000000000000000000000000602082015250565b7f4e6f74204f776e65720000000000000000000000000000000000000000000000600082015250565b7f4f776e61626c653a2063616c6c6572206973206e6f7420746865206f776e6572600082015250565b611a3b81611840565b8114611a4657600080fd5b50565b611a528161189e565b8114611a5d57600080fd5b5056fea2646970667358221220c8188ab39b48b819888c779a530e7a571bb6258e967038dcee4b496f7c7d9bcb64736f6c63430008070033",
  "linkReferences": {},
  "deployedLinkReferences": {}
}